{
  "_format": "hh-sol-artifact-1",
  "contractName": "SimpleStorage",
  "sourceName": "contracts/SimpleStorage.sol",
  "abi": [
    {
      "inputs": [
        {
          "internalType": "uint256",
          "name": "_favNumber",
          "type": "uint256"
        },
        {
          "internalType": "string",
          "name": "_name",
          "type": "string"
        }
      ],
      "name": "addPerson",
      "outputs": [],
      "stateMutability": "nonpayable",
      "type": "function"
    },
    {
      "inputs": [],
      "name": "favouriteNumber",
      "outputs": [
        {
          "internalType": "uint256",
          "name": "",
          "type": "uint256"
        }
      ],
      "stateMutability": "view",
      "type": "function"
    },
    {
      "inputs": [
        {
          "internalType": "string",
          "name": "_name",
          "type": "string"
        }
      ],
      "name": "getFavNumberForPerson",
      "outputs": [
        {
          "internalType": "uint256",
          "name": "",
          "type": "uint256"
        }
      ],
      "stateMutability": "view",
      "type": "function"
    },
    {
      "inputs": [],
      "name": "getFavouriteNumber",
      "outputs": [
        {
          "internalType": "uint256",
          "name": "",
          "type": "uint256"
        }
      ],
      "stateMutability": "view",
      "type": "function"
    },
    {
      "inputs": [
        {
          "internalType": "string",
          "name": "",
          "type": "string"
        }
      ],
      "name": "nameToFavnumber",
      "outputs": [
        {
          "internalType": "uint256",
          "name": "",
          "type": "uint256"
        }
      ],
      "stateMutability": "view",
      "type": "function"
    },
    {
      "inputs": [
        {
          "internalType": "uint256",
          "name": "",
          "type": "uint256"
        }
      ],
      "name": "people",
      "outputs": [
        {
          "internalType": "string",
          "name": "name",
          "type": "string"
        },
        {
          "internalType": "uint256",
          "name": "favNumber",
          "type": "uint256"
        }
      ],
      "stateMutability": "view",
      "type": "function"
    },
    {
      "inputs": [
        {
          "internalType": "uint256",
          "name": "_favNumber",
          "type": "uint256"
        }
      ],
      "name": "store",
      "outputs": [],
      "stateMutability": "nonpayable",
      "type": "function"
    }
  ],
  "bytecode": "0x6080604052348015600f57600080fd5b50610ad18061001f6000396000f3fe608060405234801561001057600080fd5b506004361061007d5760003560e01c80636057361d1161005b5780636057361d146101005780639e7a13ad1461011c578063bc832d4e1461014d578063e03aefbf146101695761007d565b806343ede4ae146100825780635120ec76146100a057806357eae3b0146100d0575b600080fd5b61008a610187565b6040516100979190610448565b60405180910390f35b6100ba60048036038101906100b591906105bd565b61018d565b6040516100c79190610448565b60405180910390f35b6100ea60048036038101906100e591906105bd565b6101bb565b6040516100f79190610448565b60405180910390f35b61011a60048036038101906101159190610632565b61021f565b005b61013660048036038101906101319190610632565b610251565b6040516101449291906106de565b60405180910390f35b6101676004803603810190610162919061070e565b61030d565b005b6101716103e6565b60405161017e9190610448565b60405180910390f35b60005481565b6002818051602081018201805184825260208301602085012081835280955050505050506000915090505481565b60006101d1675dbba72f4f6fb2f360c01b61042c565b6101e5677e8a067f300de87360c01b61042c565b6101f967f5300409e30ac94060c01b61042c565b60028260405161020991906107a6565b9081526020016040518091039020549050919050565b610233678c0c3cbd180a687d60c01b61042c565b610247671f1ab2ff7fb0420860c01b61042c565b8060008190555050565b6001818154811061026157600080fd5b9060005260206000209060020201600091509050806000018054610284906107ec565b80601f01602080910402602001604051908101604052809291908181526020018280546102b0906107ec565b80156102fd5780601f106102d2576101008083540402835291602001916102fd565b820191906000526020600020905b8154815290600101906020018083116102e057829003601f168201915b5050505050908060010154905082565b61032167107070da55b4a9cc60c01b61042c565b61033567ad605ec4db9e4cc960c01b61042c565b61034967dbebe552ad77985a60c01b61042c565b60016040518060400160405280838152602001848152509080600181540180825580915050600190039060005260206000209060020201600090919091909150600082015181600001908161039e91906109c9565b506020820151816001015550506103bf67040343fec20aeaa660c01b61042c565b816002826040516103d091906107a6565b9081526020016040518091039020819055505050565b60006103fc6720a5c226d635721660c01b61042c565b61041067d59066cd0298610660c01b61042c565b610424679350bb12d327796360c01b61042c565b600054905090565b50565b6000819050919050565b6104428161042f565b82525050565b600060208201905061045d6000830184610439565b92915050565b6000604051905090565b600080fd5b600080fd5b600080fd5b600080fd5b6000601f19601f8301169050919050565b7f4e487b7100000000000000000000000000000000000000000000000000000000600052604160045260246000fd5b6104ca82610481565b810181811067ffffffffffffffff821117156104e9576104e8610492565b5b80604052505050565b60006104fc610463565b905061050882826104c1565b919050565b600067ffffffffffffffff82111561052857610527610492565b5b61053182610481565b9050602081019050919050565b82818337600083830152505050565b600061056061055b8461050d565b6104f2565b90508281526020810184848401111561057c5761057b61047c565b5b61058784828561053e565b509392505050565b600082601f8301126105a4576105a3610477565b5b81356105b484826020860161054d565b91505092915050565b6000602082840312156105d3576105d261046d565b5b600082013567ffffffffffffffff8111156105f1576105f0610472565b5b6105fd8482850161058f565b91505092915050565b61060f8161042f565b811461061a57600080fd5b50565b60008135905061062c81610606565b92915050565b6000602082840312156106485761064761046d565b5b60006106568482850161061d565b91505092915050565b600081519050919050565b600082825260208201905092915050565b60005b8381101561069957808201518184015260208101905061067e565b60008484015250505050565b60006106b08261065f565b6106ba818561066a565b93506106ca81856020860161067b565b6106d381610481565b840191505092915050565b600060408201905081810360008301526106f881856106a5565b90506107076020830184610439565b9392505050565b600080604083850312156107255761072461046d565b5b60006107338582860161061d565b925050602083013567ffffffffffffffff81111561075457610753610472565b5b6107608582860161058f565b9150509250929050565b600081905092915050565b60006107808261065f565b61078a818561076a565b935061079a81856020860161067b565b80840191505092915050565b60006107b28284610775565b915081905092915050565b7f4e487b7100000000000000000000000000000000000000000000000000000000600052602260045260246000fd5b6000600282049050600182168061080457607f821691505b602082108103610817576108166107bd565b5b50919050565b60008190508160005260206000209050919050565b60006020601f8301049050919050565b600082821b905092915050565b60006008830261087f7fffffffffffffffffffffffffffffffffffffffffffffffffffffffffffffffff82610842565b6108898683610842565b95508019841693508086168417925050509392505050565b6000819050919050565b60006108c66108c16108bc8461042f565b6108a1565b61042f565b9050919050565b6000819050919050565b6108e0836108ab565b6108f46108ec826108cd565b84845461084f565b825550505050565b600090565b6109096108fc565b6109148184846108d7565b505050565b5b818110156109385761092d600082610901565b60018101905061091a565b5050565b601f82111561097d5761094e8161081d565b61095784610832565b81016020851015610966578190505b61097a61097285610832565b830182610919565b50505b505050565b600082821c905092915050565b60006109a060001984600802610982565b1980831691505092915050565b60006109b9838361098f565b9150826002028217905092915050565b6109d28261065f565b67ffffffffffffffff8111156109eb576109ea610492565b5b6109f582546107ec565b610a0082828561093c565b600060209050601f831160018114610a335760008415610a21578287015190505b610a2b85826109ad565b865550610a93565b601f198416610a418661081d565b60005b82811015610a6957848901518255600182019150602085019450602081019050610a44565b86831015610a865784890151610a82601f89168261098f565b8355505b6001600288020188555050505b50505050505056fea2646970667358221220eff32221e31643d2819280e27f906320a5a3001a63418880e61ef9359d5e88b264736f6c634300081b0033",
  "linkReferences": {},
  "deployedLinkReferences": {}
}